{
  "address": "0xD6C850aeBFDC46D7F4c207e445cC0d6B0919BDBe",
  "abi": [
    {
      "inputs": [
        {
          "internalType": "string",
          "name": "_pendlePartnerBaseUri",
          "type": "string"
        }
      ],
      "stateMutability": "nonpayable",
      "type": "constructor"
    },
    {
      "anonymous": false,
      "inputs": [
        {
          "indexed": true,
          "internalType": "address",
          "name": "owner",
          "type": "address"
        },
        {
          "indexed": true,
          "internalType": "address",
          "name": "approved",
          "type": "address"
        },
        {
          "indexed": true,
          "internalType": "uint256",
          "name": "tokenId",
          "type": "uint256"
        }
      ],
      "name": "Approval",
      "type": "event"
    },
    {
      "anonymous": false,
      "inputs": [
        {
          "indexed": true,
          "internalType": "address",
          "name": "owner",
          "type": "address"
        },
        {
          "indexed": true,
          "internalType": "address",
          "name": "operator",
          "type": "address"
        },
        {
          "indexed": false,
          "internalType": "bool",
          "name": "approved",
          "type": "bool"
        }
      ],
      "name": "ApprovalForAll",
      "type": "event"
    },
    {
      "anonymous": false,
      "inputs": [
        {
          "indexed": true,
          "internalType": "address",
          "name": "from",
          "type": "address"
        },
        {
          "indexed": true,
          "internalType": "address",
          "name": "to",
          "type": "address"
        },
        {
          "indexed": true,
          "internalType": "uint256",
          "name": "tokenId",
          "type": "uint256"
        }
      ],
      "name": "Transfer",
      "type": "event"
    },
    {
      "inputs": [
        {
          "internalType": "address",
          "name": "",
          "type": "address"
        },
        {
          "internalType": "uint256",
          "name": "",
          "type": "uint256"
        }
      ],
      "name": "addressToTokenIds",
      "outputs": [
        {
          "internalType": "uint256",
          "name": "",
          "type": "uint256"
        }
      ],
      "stateMutability": "view",
      "type": "function"
    },
    {
      "inputs": [
        {
          "internalType": "address",
          "name": "to",
          "type": "address"
        },
        {
          "internalType": "uint256",
          "name": "tokenId",
          "type": "uint256"
        }
      ],
      "name": "approve",
      "outputs": [],
      "stateMutability": "nonpayable",
      "type": "function"
    },
    {
      "inputs": [
        {
          "internalType": "address",
          "name": "owner",
          "type": "address"
        }
      ],
      "name": "balanceOf",
      "outputs": [
        {
          "internalType": "uint256",
          "name": "",
          "type": "uint256"
        }
      ],
      "stateMutability": "view",
      "type": "function"
    },
    {
      "inputs": [
        {
          "internalType": "uint256",
          "name": "tokenId",
          "type": "uint256"
        }
      ],
      "name": "getApproved",
      "outputs": [
        {
          "internalType": "address",
          "name": "",
          "type": "address"
        }
      ],
      "stateMutability": "view",
      "type": "function"
    },
    {
      "inputs": [
        {
          "internalType": "address",
          "name": "user",
          "type": "address"
        }
      ],
      "name": "getUserNftTierCounts",
      "outputs": [
        {
          "internalType": "uint256[]",
          "name": "",
          "type": "uint256[]"
        }
      ],
      "stateMutability": "view",
      "type": "function"
    },
    {
      "inputs": [
        {
          "internalType": "address",
          "name": "owner",
          "type": "address"
        },
        {
          "internalType": "address",
          "name": "operator",
          "type": "address"
        }
      ],
      "name": "isApprovedForAll",
      "outputs": [
        {
          "internalType": "bool",
          "name": "",
          "type": "bool"
        }
      ],
      "stateMutability": "view",
      "type": "function"
    },
    {
      "inputs": [
        {
          "internalType": "address",
          "name": "user",
          "type": "address"
        },
        {
          "internalType": "uint256",
          "name": "qty",
          "type": "uint256"
        },
        {
          "internalType": "uint256",
          "name": "tier",
          "type": "uint256"
        }
      ],
      "name": "mintTokens",
      "outputs": [],
      "stateMutability": "nonpayable",
      "type": "function"
    },
    {
      "inputs": [],
      "name": "name",
      "outputs": [
        {
          "internalType": "string",
          "name": "",
          "type": "string"
        }
      ],
      "stateMutability": "view",
      "type": "function"
    },
    {
      "inputs": [],
      "name": "owner",
      "outputs": [
        {
          "internalType": "address",
          "name": "",
          "type": "address"
        }
      ],
      "stateMutability": "view",
      "type": "function"
    },
    {
      "inputs": [
        {
          "internalType": "uint256",
          "name": "tokenId",
          "type": "uint256"
        }
      ],
      "name": "ownerOf",
      "outputs": [
        {
          "internalType": "address",
          "name": "",
          "type": "address"
        }
      ],
      "stateMutability": "view",
      "type": "function"
    },
    {
      "inputs": [],
      "name": "pendlePartnerBaseUri",
      "outputs": [
        {
          "internalType": "string",
          "name": "",
          "type": "string"
        }
      ],
      "stateMutability": "view",
      "type": "function"
    },
    {
      "inputs": [
        {
          "internalType": "address",
          "name": "from",
          "type": "address"
        },
        {
          "internalType": "address",
          "name": "to",
          "type": "address"
        },
        {
          "internalType": "uint256",
          "name": "tokenId",
          "type": "uint256"
        }
      ],
      "name": "safeTransferFrom",
      "outputs": [],
      "stateMutability": "nonpayable",
      "type": "function"
    },
    {
      "inputs": [
        {
          "internalType": "address",
          "name": "from",
          "type": "address"
        },
        {
          "internalType": "address",
          "name": "to",
          "type": "address"
        },
        {
          "internalType": "uint256",
          "name": "tokenId",
          "type": "uint256"
        },
        {
          "internalType": "bytes",
          "name": "_data",
          "type": "bytes"
        }
      ],
      "name": "safeTransferFrom",
      "outputs": [],
      "stateMutability": "nonpayable",
      "type": "function"
    },
    {
      "inputs": [
        {
          "internalType": "address",
          "name": "operator",
          "type": "address"
        },
        {
          "internalType": "bool",
          "name": "approved",
          "type": "bool"
        }
      ],
      "name": "setApprovalForAll",
      "outputs": [],
      "stateMutability": "nonpayable",
      "type": "function"
    },
    {
      "inputs": [
        {
          "internalType": "string",
          "name": "newBaseUri",
          "type": "string"
        }
      ],
      "name": "setBaseUri",
      "outputs": [],
      "stateMutability": "nonpayable",
      "type": "function"
    },
    {
      "inputs": [
        {
          "internalType": "bytes4",
          "name": "interfaceId",
          "type": "bytes4"
        }
      ],
      "name": "supportsInterface",
      "outputs": [
        {
          "internalType": "bool",
          "name": "",
          "type": "bool"
        }
      ],
      "stateMutability": "view",
      "type": "function"
    },
    {
      "inputs": [],
      "name": "symbol",
      "outputs": [
        {
          "internalType": "string",
          "name": "",
          "type": "string"
        }
      ],
      "stateMutability": "view",
      "type": "function"
    },
    {
      "inputs": [
        {
          "internalType": "uint256",
          "name": "",
          "type": "uint256"
        }
      ],
      "name": "tokenIDToTier",
      "outputs": [
        {
          "internalType": "uint256",
          "name": "",
          "type": "uint256"
        }
      ],
      "stateMutability": "view",
      "type": "function"
    },
    {
      "inputs": [
        {
          "internalType": "uint256",
          "name": "tokenId",
          "type": "uint256"
        }
      ],
      "name": "tokenURI",
      "outputs": [
        {
          "internalType": "string",
          "name": "",
          "type": "string"
        }
      ],
      "stateMutability": "view",
      "type": "function"
    },
    {
      "inputs": [
        {
          "internalType": "address",
          "name": "from",
          "type": "address"
        },
        {
          "internalType": "address",
          "name": "to",
          "type": "address"
        },
        {
          "internalType": "uint256",
          "name": "tokenId",
          "type": "uint256"
        }
      ],
      "name": "transferFrom",
      "outputs": [],
      "stateMutability": "nonpayable",
      "type": "function"
    }
  ],
  "transactionHash": "0x02c74cfc943ec1d830b0743202d136dfb8637f8ba688e9a7ad095edbcbe65647",
  "args": [
    "BASE_ABI"
  ],
  "solcInputHash": "a7963da6707d6c6f13169704ae725994",
  "bytecode": "0x60806040523480156200001157600080fd5b50604051620031f5380380620031f583398181016040528101906200003791906200025a565b6040518060400160405280600a81526020017f4578616d706c654e6674000000000000000000000000000000000000000000008152506040518060400160405280600281526020017f45540000000000000000000000000000000000000000000000000000000000008152508160009080519060200190620000bb92919062000138565b508060019080519060200190620000d492919062000138565b5050508060099080519060200190620000ef92919062000138565b5033600760006101000a81548173ffffffffffffffffffffffffffffffffffffffff021916908373ffffffffffffffffffffffffffffffffffffffff16021790555050620003d0565b82805462000146906200033c565b90600052602060002090601f0160209004810192826200016a5760008555620001b6565b82601f106200018557805160ff1916838001178555620001b6565b82800160010185558215620001b6579182015b82811115620001b557825182559160200191906001019062000198565b5b509050620001c59190620001c9565b5090565b5b80821115620001e4576000816000905550600101620001ca565b5090565b6000620001ff620001f984620002d3565b6200029f565b9050828152602081018484840111156200021857600080fd5b6200022584828562000306565b509392505050565b600082601f8301126200023f57600080fd5b815162000251848260208601620001e8565b91505092915050565b6000602082840312156200026d57600080fd5b600082015167ffffffffffffffff8111156200028857600080fd5b62000296848285016200022d565b91505092915050565b6000604051905081810181811067ffffffffffffffff82111715620002c957620002c8620003a1565b5b8060405250919050565b600067ffffffffffffffff821115620002f157620002f0620003a1565b5b601f19601f8301169050602081019050919050565b60005b838110156200032657808201518184015260208101905062000309565b8381111562000336576000848401525b50505050565b600060028204905060018216806200035557607f821691505b602082108114156200036c576200036b62000372565b5b50919050565b7f4e487b7100000000000000000000000000000000000000000000000000000000600052602260045260246000fd5b7f4e487b7100000000000000000000000000000000000000000000000000000000600052604160045260246000fd5b612e1580620003e06000396000f3fe608060405234801561001057600080fd5b506004361061012c5760003560e01c806370a08231116100ad578063a22cb46511610071578063a22cb46514610355578063a57465e114610371578063b88d4fde146103a1578063c87b56dd146103bd578063e985e9c5146103ed5761012c565b806370a082311461029d5780637a10837a146102cd5780638da5cb5b146102fd57806395d89b411461031b578063a0bcfc7f146103395761012c565b80632dde3cd1116100f45780632dde3cd1146101e757806333b552b51461020557806342842e0e146102355780636352211e146102515780636831e272146102815761012c565b806301ffc9a71461013157806306fdde0314610161578063081812fc1461017f578063095ea7b3146101af57806323b872dd146101cb575b600080fd5b61014b60048036038101906101469190611f6e565b61041d565b6040516101589190612774565b60405180910390f35b6101696104ff565b604051610176919061278f565b60405180910390f35b61019960048036038101906101949190612001565b610591565b6040516101a691906126eb565b60405180910390f35b6101c960048036038101906101c49190611ee3565b610616565b005b6101e560048036038101906101e09190611ddd565b61072e565b005b6101ef61078e565b6040516101fc919061278f565b60405180910390f35b61021f600480360381019061021a9190612001565b61081c565b60405161022c9190612971565b60405180910390f35b61024f600480360381019061024a9190611ddd565b610834565b005b61026b60048036038101906102669190612001565b610854565b60405161027891906126eb565b60405180910390f35b61029b60048036038101906102969190611f1f565b610906565b005b6102b760048036038101906102b29190611d78565b6109c1565b6040516102c49190612971565b60405180910390f35b6102e760048036038101906102e29190611d78565b610a79565b6040516102f49190612752565b60405180910390f35b610305610cd5565b60405161031291906126eb565b60405180910390f35b610323610cfb565b604051610330919061278f565b60405180910390f35b610353600480360381019061034e9190611fc0565b610d8d565b005b61036f600480360381019061036a9190611ea7565b610e37565b005b61038b60048036038101906103869190611ee3565b610fb8565b6040516103989190612971565b60405180910390f35b6103bb60048036038101906103b69190611e2c565b610fe9565b005b6103d760048036038101906103d29190612001565b61104b565b6040516103e4919061278f565b60405180910390f35b61040760048036038101906104029190611da1565b61119d565b6040516104149190612774565b60405180910390f35b60007f80ac58cd000000000000000000000000000000000000000000000000000000007bffffffffffffffffffffffffffffffffffffffffffffffffffffffff1916827bffffffffffffffffffffffffffffffffffffffffffffffffffffffff191614806104e857507f5b5e139f000000000000000000000000000000000000000000000000000000007bffffffffffffffffffffffffffffffffffffffffffffffffffffffff1916827bffffffffffffffffffffffffffffffffffffffffffffffffffffffff1916145b806104f857506104f782611231565b5b9050919050565b60606000805461050e90612c0a565b80601f016020809104026020016040519081016040528092919081815260200182805461053a90612c0a565b80156105875780601f1061055c57610100808354040283529160200191610587565b820191906000526020600020905b81548152906001019060200180831161056a57829003601f168201915b5050505050905090565b600061059c8261129b565b6105db576040517f08c379a00000000000000000000000000000000000000000000000000000000081526004016105d2906128b1565b60405180910390fd5b6004600083815260200190815260200160002060009054906101000a900473ffffffffffffffffffffffffffffffffffffffff169050919050565b600061062182610854565b90508073ffffffffffffffffffffffffffffffffffffffff168373ffffffffffffffffffffffffffffffffffffffff161415610692576040517f08c379a000000000000000000000000000000000000000000000000000000000815260040161068990612911565b60405180910390fd5b8073ffffffffffffffffffffffffffffffffffffffff166106b1611307565b73ffffffffffffffffffffffffffffffffffffffff1614806106e057506106df816106da611307565b61119d565b5b61071f576040517f08c379a000000000000000000000000000000000000000000000000000000000815260040161071690612831565b60405180910390fd5b610729838361130f565b505050565b61073f610739611307565b826113c8565b61077e576040517f08c379a000000000000000000000000000000000000000000000000000000000815260040161077590612951565b60405180910390fd5b6107898383836114a6565b505050565b6009805461079b90612c0a565b80601f01602080910402602001604051908101604052809291908181526020018280546107c790612c0a565b80156108145780601f106107e957610100808354040283529160200191610814565b820191906000526020600020905b8154815290600101906020018083116107f757829003601f168201915b505050505081565b600b6020528060005260406000206000915090505481565b61084f83838360405180602001604052806000815250610fe9565b505050565b6000806002600084815260200190815260200160002060009054906101000a900473ffffffffffffffffffffffffffffffffffffffff169050600073ffffffffffffffffffffffffffffffffffffffff168173ffffffffffffffffffffffffffffffffffffffff1614156108fd576040517f08c379a00000000000000000000000000000000000000000000000000000000081526004016108f490612871565b60405180910390fd5b80915050919050565b60005b828110156109bb5761091b6008611702565b60006109276008611718565b9050600a60008673ffffffffffffffffffffffffffffffffffffffff1673ffffffffffffffffffffffffffffffffffffffff16815260200190815260200160002081908060018154018082558091505060019003906000526020600020016000909190919091505582600b6000838152602001908152602001600020819055505080806109b390612c3c565b915050610909565b50505050565b60008073ffffffffffffffffffffffffffffffffffffffff168273ffffffffffffffffffffffffffffffffffffffff161415610a32576040517f08c379a0000000000000000000000000000000000000000000000000000000008152600401610a2990612851565b60405180910390fd5b600360008373ffffffffffffffffffffffffffffffffffffffff1673ffffffffffffffffffffffffffffffffffffffff168152602001908152602001600020549050919050565b60606000600367ffffffffffffffff811115610abe577f4e487b7100000000000000000000000000000000000000000000000000000000600052604160045260246000fd5b604051908082528060200260200182016040528015610aec5781602001602082028036833780820191505090505b5090506000600a60008573ffffffffffffffffffffffffffffffffffffffff1673ffffffffffffffffffffffffffffffffffffffff168152602001908152602001600020805490501415610baa5760005b8151811015610ba0576000828281518110610b81577f4e487b7100000000000000000000000000000000000000000000000000000000600052603260045260246000fd5b6020026020010181815250508080610b9890612c3c565b915050610b3d565b5080915050610cd0565b6000600a60008573ffffffffffffffffffffffffffffffffffffffff1673ffffffffffffffffffffffffffffffffffffffff168152602001908152602001600020905060005b8180549050811015610cc9576000600b6000848481548110610c3b577f4e487b7100000000000000000000000000000000000000000000000000000000600052603260045260246000fd5b9060005260206000200154815260200190815260200160002054905083600182610c659190612b20565b81518110610c9c577f4e487b7100000000000000000000000000000000000000000000000000000000600052603260045260246000fd5b602002602001018051809190610cb190612c3c565b81525050508080610cc190612c3c565b915050610bf0565b5081925050505b919050565b600760009054906101000a900473ffffffffffffffffffffffffffffffffffffffff1681565b606060018054610d0a90612c0a565b80601f0160208091040260200160405190810160405280929190818152602001828054610d3690612c0a565b8015610d835780601f10610d5857610100808354040283529160200191610d83565b820191906000526020600020905b815481529060010190602001808311610d6657829003601f168201915b5050505050905090565b600760009054906101000a900473ffffffffffffffffffffffffffffffffffffffff1673ffffffffffffffffffffffffffffffffffffffff163373ffffffffffffffffffffffffffffffffffffffff1614610e1d576040517f08c379a0000000000000000000000000000000000000000000000000000000008152600401610e1490612931565b60405180910390fd5b8060099080519060200190610e33929190611b9c565b5050565b610e3f611307565b73ffffffffffffffffffffffffffffffffffffffff168273ffffffffffffffffffffffffffffffffffffffff161415610ead576040517f08c379a0000000000000000000000000000000000000000000000000000000008152600401610ea4906127f1565b60405180910390fd5b8060056000610eba611307565b73ffffffffffffffffffffffffffffffffffffffff1673ffffffffffffffffffffffffffffffffffffffff16815260200190815260200160002060008473ffffffffffffffffffffffffffffffffffffffff1673ffffffffffffffffffffffffffffffffffffffff16815260200190815260200160002060006101000a81548160ff0219169083151502179055508173ffffffffffffffffffffffffffffffffffffffff16610f67611307565b73ffffffffffffffffffffffffffffffffffffffff167f17307eab39ab6107e8899845ad3d59bd9653f200f220920489ca2b5937696c3183604051610fac9190612774565b60405180910390a35050565b600a6020528160005260406000208181548110610fd457600080fd5b90600052602060002001600091509150505481565b610ffa610ff4611307565b836113c8565b611039576040517f08c379a000000000000000000000000000000000000000000000000000000000815260040161103090612951565b60405180910390fd5b61104584848484611726565b50505050565b60606110568261129b565b611095576040517f08c379a000000000000000000000000000000000000000000000000000000000815260040161108c90612891565b60405180910390fd5b60006006600084815260200190815260200160002080546110b590612c0a565b80601f01602080910402602001604051908101604052809291908181526020018280546110e190612c0a565b801561112e5780601f106111035761010080835404028352916020019161112e565b820191906000526020600020905b81548152906001019060200180831161111157829003601f168201915b50505050509050600061113f611782565b9050600081511415611155578192505050611198565b60008251111561118a5780826040516020016111729291906126c7565b60405160208183030381529060405292505050611198565b61119384611799565b925050505b919050565b6000600560008473ffffffffffffffffffffffffffffffffffffffff1673ffffffffffffffffffffffffffffffffffffffff16815260200190815260200160002060008373ffffffffffffffffffffffffffffffffffffffff1673ffffffffffffffffffffffffffffffffffffffff16815260200190815260200160002060009054906101000a900460ff16905092915050565b60007f01ffc9a7000000000000000000000000000000000000000000000000000000007bffffffffffffffffffffffffffffffffffffffffffffffffffffffff1916827bffffffffffffffffffffffffffffffffffffffffffffffffffffffff1916149050919050565b60008073ffffffffffffffffffffffffffffffffffffffff166002600084815260200190815260200160002060009054906101000a900473ffffffffffffffffffffffffffffffffffffffff1673ffffffffffffffffffffffffffffffffffffffff1614159050919050565b600033905090565b816004600083815260200190815260200160002060006101000a81548173ffffffffffffffffffffffffffffffffffffffff021916908373ffffffffffffffffffffffffffffffffffffffff160217905550808273ffffffffffffffffffffffffffffffffffffffff1661138283610854565b73ffffffffffffffffffffffffffffffffffffffff167f8c5be1e5ebec7d5bd14f71427d1e84f3dd0314c0f7b2291e5b200ac8c7c3b92560405160405180910390a45050565b60006113d38261129b565b611412576040517f08c379a000000000000000000000000000000000000000000000000000000000815260040161140990612811565b60405180910390fd5b600061141d83610854565b90508073ffffffffffffffffffffffffffffffffffffffff168473ffffffffffffffffffffffffffffffffffffffff16148061148c57508373ffffffffffffffffffffffffffffffffffffffff1661147484610591565b73ffffffffffffffffffffffffffffffffffffffff16145b8061149d575061149c818561119d565b5b91505092915050565b8273ffffffffffffffffffffffffffffffffffffffff166114c682610854565b73ffffffffffffffffffffffffffffffffffffffff161461151c576040517f08c379a0000000000000000000000000000000000000000000000000000000008152600401611513906128d1565b60405180910390fd5b600073ffffffffffffffffffffffffffffffffffffffff168273ffffffffffffffffffffffffffffffffffffffff16141561158c576040517f08c379a0000000000000000000000000000000000000000000000000000000008152600401611583906127d1565b60405180910390fd5b611597838383611840565b6115a260008261130f565b6001600360008573ffffffffffffffffffffffffffffffffffffffff1673ffffffffffffffffffffffffffffffffffffffff16815260200190815260200160002060008282546115f29190612b20565b925050819055506001600360008473ffffffffffffffffffffffffffffffffffffffff1673ffffffffffffffffffffffffffffffffffffffff16815260200190815260200160002060008282546116499190612a99565b92505081905550816002600083815260200190815260200160002060006101000a81548173ffffffffffffffffffffffffffffffffffffffff021916908373ffffffffffffffffffffffffffffffffffffffff160217905550808273ffffffffffffffffffffffffffffffffffffffff168473ffffffffffffffffffffffffffffffffffffffff167fddf252ad1be2c89b69c2b068fc378daa952ba7f163c4a11628f55a4df523b3ef60405160405180910390a4505050565b6001816000016000828254019250508190555050565b600081600001549050919050565b6117318484846114a6565b61173d84848484611845565b61177c576040517f08c379a0000000000000000000000000000000000000000000000000000000008152600401611773906127b1565b60405180910390fd5b50505050565b606060405180602001604052806000815250905090565b60606117a48261129b565b6117e3576040517f08c379a00000000000000000000000000000000000000000000000000000000081526004016117da906128f1565b60405180910390fd5b60006117ed611782565b9050600081511161180d5760405180602001604052806000815250611838565b80611817846119dc565b6040516020016118289291906126c7565b6040516020818303038152906040525b915050919050565b505050565b60006118668473ffffffffffffffffffffffffffffffffffffffff16611b89565b156119cf578373ffffffffffffffffffffffffffffffffffffffff1663150b7a0261188f611307565b8786866040518563ffffffff1660e01b81526004016118b19493929190612706565b602060405180830381600087803b1580156118cb57600080fd5b505af19250505080156118fc57506040513d601f19601f820116820180604052508101906118f99190611f97565b60015b61197f573d806000811461192c576040519150601f19603f3d011682016040523d82523d6000602084013e611931565b606091505b50600081511415611977576040517f08c379a000000000000000000000000000000000000000000000000000000000815260040161196e906127b1565b60405180910390fd5b805181602001fd5b63150b7a0260e01b7bffffffffffffffffffffffffffffffffffffffffffffffffffffffff1916817bffffffffffffffffffffffffffffffffffffffffffffffffffffffff1916149150506119d4565b600190505b949350505050565b60606000821415611a24576040518060400160405280600181526020017f30000000000000000000000000000000000000000000000000000000000000008152509050611b84565b600082905060005b60008214611a56578080611a3f90612c3c565b915050600a82611a4f9190612aef565b9150611a2c565b60008167ffffffffffffffff811115611a98577f4e487b7100000000000000000000000000000000000000000000000000000000600052604160045260246000fd5b6040519080825280601f01601f191660200182016040528015611aca5781602001600182028036833780820191505090505b5090505b60008514611b7d57600182611ae39190612b20565b9150600a85611af29190612c85565b6030611afe9190612a99565b60f81b818381518110611b3a577f4e487b7100000000000000000000000000000000000000000000000000000000600052603260045260246000fd5b60200101907effffffffffffffffffffffffffffffffffffffffffffffffffffffffffffff1916908160001a905350600a85611b769190612aef565b9450611ace565b8093505050505b919050565b600080823b905060008111915050919050565b828054611ba890612c0a565b90600052602060002090601f016020900481019282611bca5760008555611c11565b82601f10611be357805160ff1916838001178555611c11565b82800160010185558215611c11579182015b82811115611c10578251825591602001919060010190611bf5565b5b509050611c1e9190611c22565b5090565b5b80821115611c3b576000816000905550600101611c23565b5090565b6000611c52611c4d846129bd565b61298c565b905082815260208101848484011115611c6a57600080fd5b611c75848285612bc8565b509392505050565b6000611c90611c8b846129ed565b61298c565b905082815260208101848484011115611ca857600080fd5b611cb3848285612bc8565b509392505050565b600081359050611cca81612d83565b92915050565b600081359050611cdf81612d9a565b92915050565b600081359050611cf481612db1565b92915050565b600081519050611d0981612db1565b92915050565b600082601f830112611d2057600080fd5b8135611d30848260208601611c3f565b91505092915050565b600082601f830112611d4a57600080fd5b8135611d5a848260208601611c7d565b91505092915050565b600081359050611d7281612dc8565b92915050565b600060208284031215611d8a57600080fd5b6000611d9884828501611cbb565b91505092915050565b60008060408385031215611db457600080fd5b6000611dc285828601611cbb565b9250506020611dd385828601611cbb565b9150509250929050565b600080600060608486031215611df257600080fd5b6000611e0086828701611cbb565b9350506020611e1186828701611cbb565b9250506040611e2286828701611d63565b9150509250925092565b60008060008060808587031215611e4257600080fd5b6000611e5087828801611cbb565b9450506020611e6187828801611cbb565b9350506040611e7287828801611d63565b925050606085013567ffffffffffffffff811115611e8f57600080fd5b611e9b87828801611d0f565b91505092959194509250565b60008060408385031215611eba57600080fd5b6000611ec885828601611cbb565b9250506020611ed985828601611cd0565b9150509250929050565b60008060408385031215611ef657600080fd5b6000611f0485828601611cbb565b9250506020611f1585828601611d63565b9150509250929050565b600080600060608486031215611f3457600080fd5b6000611f4286828701611cbb565b9350506020611f5386828701611d63565b9250506040611f6486828701611d63565b9150509250925092565b600060208284031215611f8057600080fd5b6000611f8e84828501611ce5565b91505092915050565b600060208284031215611fa957600080fd5b6000611fb784828501611cfa565b91505092915050565b600060208284031215611fd257600080fd5b600082013567ffffffffffffffff811115611fec57600080fd5b611ff884828501611d39565b91505092915050565b60006020828403121561201357600080fd5b600061202184828501611d63565b91505092915050565b600061203683836126a9565b60208301905092915050565b61204b81612b54565b82525050565b600061205c82612a2d565b6120668185612a5b565b935061207183612a1d565b8060005b838110156120a2578151612089888261202a565b975061209483612a4e565b925050600181019050612075565b5085935050505092915050565b6120b881612b66565b82525050565b60006120c982612a38565b6120d38185612a6c565b93506120e3818560208601612bd7565b6120ec81612d72565b840191505092915050565b600061210282612a43565b61210c8185612a7d565b935061211c818560208601612bd7565b61212581612d72565b840191505092915050565b600061213b82612a43565b6121458185612a8e565b9350612155818560208601612bd7565b80840191505092915050565b600061216e603283612a7d565b91507f4552433732313a207472616e7366657220746f206e6f6e20455243373231526560008301527f63656976657220696d706c656d656e74657200000000000000000000000000006020830152604082019050919050565b60006121d4602483612a7d565b91507f4552433732313a207472616e7366657220746f20746865207a65726f2061646460008301527f72657373000000000000000000000000000000000000000000000000000000006020830152604082019050919050565b600061223a601983612a7d565b91507f4552433732313a20617070726f766520746f2063616c6c6572000000000000006000830152602082019050919050565b600061227a602c83612a7d565b91507f4552433732313a206f70657261746f7220717565727920666f72206e6f6e657860008301527f697374656e7420746f6b656e00000000000000000000000000000000000000006020830152604082019050919050565b60006122e0603883612a7d565b91507f4552433732313a20617070726f76652063616c6c6572206973206e6f74206f7760008301527f6e6572206e6f7220617070726f76656420666f7220616c6c00000000000000006020830152604082019050919050565b6000612346602a83612a7d565b91507f4552433732313a2062616c616e636520717565727920666f7220746865207a6560008301527f726f2061646472657373000000000000000000000000000000000000000000006020830152604082019050919050565b60006123ac602983612a7d565b91507f4552433732313a206f776e657220717565727920666f72206e6f6e657869737460008301527f656e7420746f6b656e00000000000000000000000000000000000000000000006020830152604082019050919050565b6000612412603183612a7d565b91507f45524337323155524953746f726167653a2055524920717565727920666f722060008301527f6e6f6e6578697374656e7420746f6b656e0000000000000000000000000000006020830152604082019050919050565b6000612478602c83612a7d565b91507f4552433732313a20617070726f76656420717565727920666f72206e6f6e657860008301527f697374656e7420746f6b656e00000000000000000000000000000000000000006020830152604082019050919050565b60006124de602983612a7d565b91507f4552433732313a207472616e73666572206f6620746f6b656e2074686174206960008301527f73206e6f74206f776e00000000000000000000000000000000000000000000006020830152604082019050919050565b6000612544602f83612a7d565b91507f4552433732314d657461646174613a2055524920717565727920666f72206e6f60008301527f6e6578697374656e7420746f6b656e00000000000000000000000000000000006020830152604082019050919050565b60006125aa602183612a7d565b91507f4552433732313a20617070726f76616c20746f2063757272656e74206f776e6560008301527f72000000000000000000000000000000000000000000000000000000000000006020830152604082019050919050565b6000612610600983612a7d565b91507f4e6f74206f776e657200000000000000000000000000000000000000000000006000830152602082019050919050565b6000612650603183612a7d565b91507f4552433732313a207472616e736665722063616c6c6572206973206e6f74206f60008301527f776e6572206e6f7220617070726f7665640000000000000000000000000000006020830152604082019050919050565b6126b281612bbe565b82525050565b6126c181612bbe565b82525050565b60006126d38285612130565b91506126df8284612130565b91508190509392505050565b60006020820190506127006000830184612042565b92915050565b600060808201905061271b6000830187612042565b6127286020830186612042565b61273560408301856126b8565b818103606083015261274781846120be565b905095945050505050565b6000602082019050818103600083015261276c8184612051565b905092915050565b600060208201905061278960008301846120af565b92915050565b600060208201905081810360008301526127a981846120f7565b905092915050565b600060208201905081810360008301526127ca81612161565b9050919050565b600060208201905081810360008301526127ea816121c7565b9050919050565b6000602082019050818103600083015261280a8161222d565b9050919050565b6000602082019050818103600083015261282a8161226d565b9050919050565b6000602082019050818103600083015261284a816122d3565b9050919050565b6000602082019050818103600083015261286a81612339565b9050919050565b6000602082019050818103600083015261288a8161239f565b9050919050565b600060208201905081810360008301526128aa81612405565b9050919050565b600060208201905081810360008301526128ca8161246b565b9050919050565b600060208201905081810360008301526128ea816124d1565b9050919050565b6000602082019050818103600083015261290a81612537565b9050919050565b6000602082019050818103600083015261292a8161259d565b9050919050565b6000602082019050818103600083015261294a81612603565b9050919050565b6000602082019050818103600083015261296a81612643565b9050919050565b600060208201905061298660008301846126b8565b92915050565b6000604051905081810181811067ffffffffffffffff821117156129b3576129b2612d43565b5b8060405250919050565b600067ffffffffffffffff8211156129d8576129d7612d43565b5b601f19601f8301169050602081019050919050565b600067ffffffffffffffff821115612a0857612a07612d43565b5b601f19601f8301169050602081019050919050565b6000819050602082019050919050565b600081519050919050565b600081519050919050565b600081519050919050565b6000602082019050919050565b600082825260208201905092915050565b600082825260208201905092915050565b600082825260208201905092915050565b600081905092915050565b6000612aa482612bbe565b9150612aaf83612bbe565b9250827fffffffffffffffffffffffffffffffffffffffffffffffffffffffffffffffff03821115612ae457612ae3612cb6565b5b828201905092915050565b6000612afa82612bbe565b9150612b0583612bbe565b925082612b1557612b14612ce5565b5b828204905092915050565b6000612b2b82612bbe565b9150612b3683612bbe565b925082821015612b4957612b48612cb6565b5b828203905092915050565b6000612b5f82612b9e565b9050919050565b60008115159050919050565b60007fffffffff0000000000000000000000000000000000000000000000000000000082169050919050565b600073ffffffffffffffffffffffffffffffffffffffff82169050919050565b6000819050919050565b82818337600083830152505050565b60005b83811015612bf5578082015181840152602081019050612bda565b83811115612c04576000848401525b50505050565b60006002820490506001821680612c2257607f821691505b60208210811415612c3657612c35612d14565b5b50919050565b6000612c4782612bbe565b91507fffffffffffffffffffffffffffffffffffffffffffffffffffffffffffffffff821415612c7a57612c79612cb6565b5b600182019050919050565b6000612c9082612bbe565b9150612c9b83612bbe565b925082612cab57612caa612ce5565b5b828206905092915050565b7f4e487b7100000000000000000000000000000000000000000000000000000000600052601160045260246000fd5b7f4e487b7100000000000000000000000000000000000000000000000000000000600052601260045260246000fd5b7f4e487b7100000000000000000000000000000000000000000000000000000000600052602260045260246000fd5b7f4e487b7100000000000000000000000000000000000000000000000000000000600052604160045260246000fd5b6000601f19601f8301169050919050565b612d8c81612b54565b8114612d9757600080fd5b50565b612da381612b66565b8114612dae57600080fd5b50565b612dba81612b72565b8114612dc557600080fd5b50565b612dd181612bbe565b8114612ddc57600080fd5b5056fea264697066735822122038780b759284a943db42c71b9a94bf42afa1b3b3c68797b8238f5f1a86919d8664736f6c63430008000033",
  "devdoc": {
    "kind": "dev",
    "methods": {
      "approve(address,uint256)": {
        "details": "See {IERC721-approve}."
      },
      "balanceOf(address)": {
        "details": "See {IERC721-balanceOf}."
      },
      "getApproved(uint256)": {
        "details": "See {IERC721-getApproved}."
      },
      "isApprovedForAll(address,address)": {
        "details": "See {IERC721-isApprovedForAll}."
      },
      "name()": {
        "details": "See {IERC721Metadata-name}."
      },
      "ownerOf(uint256)": {
        "details": "See {IERC721-ownerOf}."
      },
      "safeTransferFrom(address,address,uint256)": {
        "details": "See {IERC721-safeTransferFrom}."
      },
      "safeTransferFrom(address,address,uint256,bytes)": {
        "details": "See {IERC721-safeTransferFrom}."
      },
      "setApprovalForAll(address,bool)": {
        "details": "See {IERC721-setApprovalForAll}."
      },
      "supportsInterface(bytes4)": {
        "details": "See {IERC165-supportsInterface}."
      },
      "symbol()": {
        "details": "See {IERC721Metadata-symbol}."
      },
      "tokenURI(uint256)": {
        "details": "See {IERC721Metadata-tokenURI}."
      },
      "transferFrom(address,address,uint256)": {
        "details": "See {IERC721-transferFrom}."
      }
    },
    "version": 1
  },
  "userdoc": {
    "kind": "user",
    "methods": {},
    "version": 1
  },
  "storageLayout": {
    "storage": [
      {
        "astId": 938,
        "contract": "contracts/ExampleNft.sol:ExampleNft",
        "label": "_name",
        "offset": 0,
        "slot": "0",
        "type": "t_string_storage"
      },
      {
        "astId": 940,
        "contract": "contracts/ExampleNft.sol:ExampleNft",
        "label": "_symbol",
        "offset": 0,
        "slot": "1",
        "type": "t_string_storage"
      },
      {
        "astId": 944,
        "contract": "contracts/ExampleNft.sol:ExampleNft",
        "label": "_owners",
        "offset": 0,
        "slot": "2",
        "type": "t_mapping(t_uint256,t_address)"
      },
      {
        "astId": 948,
        "contract": "contracts/ExampleNft.sol:ExampleNft",
        "label": "_balances",
        "offset": 0,
        "slot": "3",
        "type": "t_mapping(t_address,t_uint256)"
      },
      {
        "astId": 952,
        "contract": "contracts/ExampleNft.sol:ExampleNft",
        "label": "_tokenApprovals",
        "offset": 0,
        "slot": "4",
        "type": "t_mapping(t_uint256,t_address)"
      },
      {
        "astId": 958,
        "contract": "contracts/ExampleNft.sol:ExampleNft",
        "label": "_operatorApprovals",
        "offset": 0,
        "slot": "5",
        "type": "t_mapping(t_address,t_mapping(t_address,t_bool))"
      },
      {
        "astId": 1875,
        "contract": "contracts/ExampleNft.sol:ExampleNft",
        "label": "_tokenURIs",
        "offset": 0,
        "slot": "6",
        "type": "t_mapping(t_uint256,t_string_storage)"
      },
      {
        "astId": 3250,
        "contract": "contracts/ExampleNft.sol:ExampleNft",
        "label": "owner",
        "offset": 0,
        "slot": "7",
        "type": "t_address"
      },
      {
        "astId": 3253,
        "contract": "contracts/ExampleNft.sol:ExampleNft",
        "label": "_tokenIds",
        "offset": 0,
        "slot": "8",
        "type": "t_struct(Counter)2342_storage"
      },
      {
        "astId": 3255,
        "contract": "contracts/ExampleNft.sol:ExampleNft",
        "label": "pendlePartnerBaseUri",
        "offset": 0,
        "slot": "9",
        "type": "t_string_storage"
      },
      {
        "astId": 3260,
        "contract": "contracts/ExampleNft.sol:ExampleNft",
        "label": "addressToTokenIds",
        "offset": 0,
        "slot": "10",
        "type": "t_mapping(t_address,t_array(t_uint256)dyn_storage)"
      },
      {
        "astId": 3264,
        "contract": "contracts/ExampleNft.sol:ExampleNft",
        "label": "tokenIDToTier",
        "offset": 0,
        "slot": "11",
        "type": "t_mapping(t_uint256,t_uint256)"
      }
    ],
    "types": {
      "t_address": {
        "encoding": "inplace",
        "label": "address",
        "numberOfBytes": "20"
      },
      "t_array(t_uint256)dyn_storage": {
        "base": "t_uint256",
        "encoding": "dynamic_array",
        "label": "uint256[]",
        "numberOfBytes": "32"
      },
      "t_bool": {
        "encoding": "inplace",
        "label": "bool",
        "numberOfBytes": "1"
      },
      "t_mapping(t_address,t_array(t_uint256)dyn_storage)": {
        "encoding": "mapping",
        "key": "t_address",
        "label": "mapping(address => uint256[])",
        "numberOfBytes": "32",
        "value": "t_array(t_uint256)dyn_storage"
      },
      "t_mapping(t_address,t_bool)": {
        "encoding": "mapping",
        "key": "t_address",
        "label": "mapping(address => bool)",
        "numberOfBytes": "32",
        "value": "t_bool"
      },
      "t_mapping(t_address,t_mapping(t_address,t_bool))": {
        "encoding": "mapping",
        "key": "t_address",
        "label": "mapping(address => mapping(address => bool))",
        "numberOfBytes": "32",
        "value": "t_mapping(t_address,t_bool)"
      },
      "t_mapping(t_address,t_uint256)": {
        "encoding": "mapping",
        "key": "t_address",
        "label": "mapping(address => uint256)",
        "numberOfBytes": "32",
        "value": "t_uint256"
      },
      "t_mapping(t_uint256,t_address)": {
        "encoding": "mapping",
        "key": "t_uint256",
        "label": "mapping(uint256 => address)",
        "numberOfBytes": "32",
        "value": "t_address"
      },
      "t_mapping(t_uint256,t_string_storage)": {
        "encoding": "mapping",
        "key": "t_uint256",
        "label": "mapping(uint256 => string)",
        "numberOfBytes": "32",
        "value": "t_string_storage"
      },
      "t_mapping(t_uint256,t_uint256)": {
        "encoding": "mapping",
        "key": "t_uint256",
        "label": "mapping(uint256 => uint256)",
        "numberOfBytes": "32",
        "value": "t_uint256"
      },
      "t_string_storage": {
        "encoding": "bytes",
        "label": "string",
        "numberOfBytes": "32"
      },
      "t_struct(Counter)2342_storage": {
        "encoding": "inplace",
        "label": "struct Counters.Counter",
        "members": [
          {
            "astId": 2341,
            "contract": "contracts/ExampleNft.sol:ExampleNft",
            "label": "_value",
            "offset": 0,
            "slot": "0",
            "type": "t_uint256"
          }
        ],
        "numberOfBytes": "32"
      },
      "t_uint256": {
        "encoding": "inplace",
        "label": "uint256",
        "numberOfBytes": "32"
      }
    }
  }
}