{
  "address": "0x500D1d6A4c7D8Ae28240b47c8FCde034D827fD5e",
  "abi": [
    {
      "inputs": [
        {
          "internalType": "string",
          "name": "_greeting",
          "type": "string"
        }
      ],
      "stateMutability": "nonpayable",
      "type": "constructor"
    },
    {
      "anonymous": false,
      "inputs": [
        {
          "indexed": false,
          "internalType": "string",
          "name": "_new",
          "type": "string"
        },
        {
          "indexed": false,
          "internalType": "address",
          "name": "setter",
          "type": "address"
        },
        {
          "indexed": false,
          "internalType": "uint256",
          "name": "amount",
          "type": "uint256"
        }
      ],
      "name": "GreetingUpdated",
      "type": "event"
    },
    {
      "inputs": [],
      "name": "greet",
      "outputs": [
        {
          "internalType": "string",
          "name": "",
          "type": "string"
        }
      ],
      "stateMutability": "view",
      "type": "function"
    },
    {
      "inputs": [],
      "name": "greeting",
      "outputs": [
        {
          "internalType": "string",
          "name": "",
          "type": "string"
        }
      ],
      "stateMutability": "view",
      "type": "function"
    },
    {
      "inputs": [
        {
          "internalType": "string",
          "name": "_greeting",
          "type": "string"
        }
      ],
      "name": "setGreeting",
      "outputs": [],
      "stateMutability": "payable",
      "type": "function"
    }
  ],
  "transactionHash": "0x0e34b3d5dd2f4a9e18da56f33de35993b16d80e04aebd56ee4fc599f6ccc91f7",
  "args": [
    "Bonjour localhost!"
  ],
  "solcInputHash": "0ea7af85855b4495a6eb43ec9517028c",
  "bytecode": "0x60806040523480156200001157600080fd5b5060405162000e6838038062000e68833981810160405281019062000037919062000278565b6200006760405180606001604052806022815260200162000e4660229139826200008760201b6200036b1760201c565b80600090805190602001906200007f92919062000156565b505062000497565b620001298282604051602401620000a0929190620002fe565b6040516020818303038152906040527f4b5c4277000000000000000000000000000000000000000000000000000000007bffffffffffffffffffffffffffffffffffffffffffffffffffffffff19166020820180517bffffffffffffffffffffffffffffffffffffffffffffffffffffffff83818316178352505050506200012d60201b60201c565b5050565b60008151905060006a636f6e736f6c652e6c6f679050602083016000808483855afa5050505050565b8280546200016490620003f2565b90600052602060002090601f016020900481019282620001885760008555620001d4565b82601f10620001a357805160ff1916838001178555620001d4565b82800160010185558215620001d4579182015b82811115620001d3578251825591602001919060010190620001b6565b5b509050620001e39190620001e7565b5090565b5b8082111562000202576000816000905550600101620001e8565b5090565b60006200021d62000217846200036d565b62000339565b9050828152602081018484840111156200023657600080fd5b62000243848285620003bc565b509392505050565b600082601f8301126200025d57600080fd5b81516200026f84826020860162000206565b91505092915050565b6000602082840312156200028b57600080fd5b600082015167ffffffffffffffff811115620002a657600080fd5b620002b4848285016200024b565b91505092915050565b6000620002ca82620003a0565b620002d68185620003ab565b9350620002e8818560208601620003bc565b620002f38162000486565b840191505092915050565b600060408201905081810360008301526200031a8185620002bd565b90508181036020830152620003308184620002bd565b90509392505050565b6000604051905081810181811067ffffffffffffffff8211171562000363576200036262000457565b5b8060405250919050565b600067ffffffffffffffff8211156200038b576200038a62000457565b5b601f19601f8301169050602081019050919050565b600081519050919050565b600082825260208201905092915050565b60005b83811015620003dc578082015181840152602081019050620003bf565b83811115620003ec576000848401525b50505050565b600060028204905060018216806200040b57607f821691505b6020821081141562000422576200042162000428565b5b50919050565b7f4e487b7100000000000000000000000000000000000000000000000000000000600052602260045260246000fd5b7f4e487b7100000000000000000000000000000000000000000000000000000000600052604160045260246000fd5b6000601f19601f8301169050919050565b61099f80620004a76000396000f3fe6080604052600436106100345760003560e01c8063a413686214610039578063cfae321714610055578063ef690cc014610080575b600080fd5b610053600480360381019061004e91906105dd565b6100ab565b005b34801561006157600080fd5b5061006a61024b565b60405161007791906106b5565b60405180910390f35b34801561008c57600080fd5b506100956102dd565b6040516100a291906106b5565b60405180910390f35b6101ab6040518060400160405280601681526020017f4368616e67696e67206772656574696e672066726f6d00000000000000000000815250600080546100f1906108c8565b80601f016020809104026020016040519081016040528092919081815260200182805461011d906108c8565b801561016a5780601f1061013f5761010080835404028352916020019161016a565b820191906000526020600020905b81548152906001019060200180831161014d57829003601f168201915b50505050506040518060400160405280600281526020017f746f00000000000000000000000000000000000000000000000000000000000081525084610407565b670de0b6b3a76400003410156101f6576040517f08c379a00000000000000000000000000000000000000000000000000000000081526004016101ed906107ad565b60405180910390fd5b806000908051906020019061020c9291906104d2565b507f8e76f780213f415e70b1bf2ac0a60f3b65de93f90d2ad1f455c8ca258c1f9255813334604051610240939291906106d7565b60405180910390a150565b60606000805461025a906108c8565b80601f0160208091040260200160405190810160405280929190818152602001828054610286906108c8565b80156102d35780601f106102a8576101008083540402835291602001916102d3565b820191906000526020600020905b8154815290600101906020018083116102b657829003601f168201915b5050505050905090565b600080546102ea906108c8565b80601f0160208091040260200160405190810160405280929190818152602001828054610316906108c8565b80156103635780601f1061033857610100808354040283529160200191610363565b820191906000526020600020905b81548152906001019060200180831161034657829003601f168201915b505050505081565b6104038282604051602401610381929190610715565b6040516020818303038152906040527f4b5c4277000000000000000000000000000000000000000000000000000000007bffffffffffffffffffffffffffffffffffffffffffffffffffffffff19166020820180517bffffffffffffffffffffffffffffffffffffffffffffffffffffffff83818316178352505050506104a9565b5050565b6104a384848484604051602401610421949392919061074c565b6040516020818303038152906040527fde68f20a000000000000000000000000000000000000000000000000000000007bffffffffffffffffffffffffffffffffffffffffffffffffffffffff19166020820180517bffffffffffffffffffffffffffffffffffffffffffffffffffffffff83818316178352505050506104a9565b50505050565b60008151905060006a636f6e736f6c652e6c6f679050602083016000808483855afa5050505050565b8280546104de906108c8565b90600052602060002090601f0160209004810192826105005760008555610547565b82601f1061051957805160ff1916838001178555610547565b82800160010185558215610547579182015b8281111561054657825182559160200191906001019061052b565b5b5090506105549190610558565b5090565b5b80821115610571576000816000905550600101610559565b5090565b6000610588610583846107fe565b6107cd565b9050828152602081018484840111156105a057600080fd5b6105ab848285610886565b509392505050565b600082601f8301126105c457600080fd5b81356105d4848260208601610575565b91505092915050565b6000602082840312156105ef57600080fd5b600082013567ffffffffffffffff81111561060957600080fd5b610615848285016105b3565b91505092915050565b6106278161084a565b82525050565b60006106388261082e565b6106428185610839565b9350610652818560208601610895565b61065b81610958565b840191505092915050565b6000610673601b83610839565b91507f6d696e696d616c20646f6e6174696f6e206973203120657468657200000000006000830152602082019050919050565b6106af8161087c565b82525050565b600060208201905081810360008301526106cf818461062d565b905092915050565b600060608201905081810360008301526106f1818661062d565b9050610700602083018561061e565b61070d60408301846106a6565b949350505050565b6000604082019050818103600083015261072f818561062d565b90508181036020830152610743818461062d565b90509392505050565b60006080820190508181036000830152610766818761062d565b9050818103602083015261077a818661062d565b9050818103604083015261078e818561062d565b905081810360608301526107a2818461062d565b905095945050505050565b600060208201905081810360008301526107c681610666565b9050919050565b6000604051905081810181811067ffffffffffffffff821117156107f4576107f3610929565b5b8060405250919050565b600067ffffffffffffffff82111561081957610818610929565b5b601f19601f8301169050602081019050919050565b600081519050919050565b600082825260208201905092915050565b60006108558261085c565b9050919050565b600073ffffffffffffffffffffffffffffffffffffffff82169050919050565b6000819050919050565b82818337600083830152505050565b60005b838110156108b3578082015181840152602081019050610898565b838111156108c2576000848401525b50505050565b600060028204905060018216806108e057607f821691505b602082108114156108f4576108f36108fa565b5b50919050565b7f4e487b7100000000000000000000000000000000000000000000000000000000600052602260045260246000fd5b7f4e487b7100000000000000000000000000000000000000000000000000000000600052604160045260246000fd5b6000601f19601f830116905091905056fea2646970667358221220501b57a354a804d1b5a1ad808db49b7f5ca25ae0220d71052a8bfe13c369b7ab64736f6c634300080000334465706c6f79696e67206120477265657465722077697468206772656574696e673a",
  "devdoc": {
    "kind": "dev",
    "methods": {},
    "version": 1
  },
  "userdoc": {
    "kind": "user",
    "methods": {},
    "version": 1
  },
  "storageLayout": {
    "storage": [
      {
        "astId": 988,
        "contract": "contracts/Greeter.sol:Greeter",
        "label": "greeting",
        "offset": 0,
        "slot": "0",
        "type": "t_string_storage"
      }
    ],
    "types": {
      "t_string_storage": {
        "encoding": "bytes",
        "label": "string",
        "numberOfBytes": "32"
      }
    }
  }
}